:020000040800F2
:10000000000001204D190008DD180008DF18000865
:10001000E1180008E3180008E518000800000000D7
:10002000000000000000000000000000E7180008C9
:10003000E918000800000000EB180008ED1800089F
:100040009D1900089D1900089D1900089D190008B8
:100050009D1900089D1900089D1900089D190008A8
:100060009D1900089D1900089D1900089D19000898
:100070009D1900089D1900089D1900089D19000888
:100080009D1900089D1900089D1900080000000036
:100090000000000000000000000000009D190008A2
:1000A0009D1900089D1900089D1900089D19000858
:1000B0009D1900089D1900089D1900089D19000848
:1000C0009D1900089D1900089D1900089D19000838
:1000D0009D190008F11800089D1900080000000093
:1000E0009D1900089D1900089D19000800000000D6
:1000F0000000000000000000000000009D19000842
:10010000000000009D1900089D1900089D190008B5
:1001100000000000000000000000000000000000DF
:100120009D1900089D1900089D1900089D190008D7
:100130009D19000800000000000000000000000001
:100140000000000000000000000000009D190008F1
:100150009D1900089D1900089D1900089D190008A7
:100160009D1900089D190008000000000000000013
:10017000000000000000000000000000000000007F
:10018000000000009D1900080000000000000000B1
:040190009D190008AD
:1001A00010B5054C237833B9044B13B10448AFF3B1
:1001B00000800123237010BDE40100200000000036
:1001C000D425000808B5034B1BB103490348AFF31E
:1001D000008008BD00000000E8010020D4250008D0
:1001E000034613F8012B002AFBD1181A0138704777
:1001F00001F0FF01102A2BDB10F0070F08D010F8D8
:10020000013B013A8B422DD010F0070F42B3F6D1DB
:10021000F0B441EA012141EA014122F007047FF0F4
:1002200000070023F0E80256083C85EA010586EA4B
:10023000010685FA47F5A3FA87F586FA47F6A5FA87
:1002400087F68EB9EED1F0BC01F0FF0102F0070293
:1002500032B110F8013B013A83EA010313B1F8D13E
:100260000020704701387047002D06BF354603381F
:10027000073815F0010F07D1013015F4807F02BF58
:10028000013015F4C03F0130F0BC0138704700BFA9
:1002900053B94AB9002908BF00281CBF4FF0FF31ED
:1002A0004FF0FF3000F07AB9ADF1080C6DE904CEE3
:1002B00000F006F8DDF804E0DDE9022304B0704741
:1002C0002DE9F0478C460D460446089E002B51D17F
:1002D0008A4217466DD9B2FA82FEBEF1000F0BD0EA
:1002E000CEF1200C01FA0EF520FA0CFC02FA0EF702
:1002F0004CEA050C00FA0EF44FEA174A250CBCFB39
:10030000FAF81FFA87F90AFB18CC45EA0C4508FBF6
:1003100009F3AB420AD9ED1908F1FF3280F02381CD
:10032000AB4240F22081A8F102083D44ED1AA4B28C
:10033000B5FBFAF00AFB105544EA054400FB09F945
:10034000A14509D9E41900F1FF3380F00A81A145E4
:1003500040F2078102383C44A4EB090440EA08401B
:100360000021002E61D024FA0EF400233460736063
:10037000BDE8F0878B4207D9002E54D0002186E8D3
:1003800021000846BDE8F087B3FA83F1002940F068
:100390008E80AB4202D3824200F2FA80841A65EB6F
:1003A00003050120AC46002E3FD086E81010BDE8C2
:1003B000F08712B90127B7FBF2F7B7FA87FEBEF153
:1003C000000F34D1EB1B3A0C1FFA87FC0121B3FB61
:1003D000F2F8250C02FB183345EA03450CFB08F341
:1003E000AB4207D9ED1908F1FF3002D2AB4200F25F
:1003F000D1808046ED1AA3B2B5FBF2F002FB105596
:1004000043EA05440CFB00FCA44507D9E41900F1BC
:10041000FF3302D2A44500F2B8801846A4EB0C04C6
:1004200040EA08409DE731463046BDE8F087CEF10E
:10043000200405FA0EF307FA0EF720FA04F83A0C36
:1004400025FA04F448EA0308B4FBF2F14FEA184530
:1004500002FB11441FFA87FC45EA044501FB0CF33B
:10046000AB4200FA0EF409D9ED1901F1FF3080F02A
:100470008A80AB4240F2878002393D44EB1A1FFA72
:1004800088F5B3FBF2F002FB103345EA034500FBAD
:100490000CF3AB4207D9ED1900F1FF386FD2AB4234
:1004A0006DD902383D44EB1A40EA01418FE7C1F1B2
:1004B000200722FA07F88B4005FA01F448EA030303
:1004C00020FA07FE4FEA134CFD404EEA040EB5FB3E
:1004D000FCF94FEA1E440CFB19551FFA83F844EA55
:1004E000054509FB08F4AC4202FA01F200FA01FAF0
:1004F00008D9ED1809F1FF3043D2AC4241D9A9F136
:1005000002091D442D1B1FFA8EFEB5FBFCF00CFBEF
:1005100010554EEA054400FB08F8A04507D9E41839
:1005200000F1FF3529D2A04527D902381C4440EA02
:100530000940A4EB0804A0FB02894C45C6464D4681
:1005400015D312D056B1BAEB0E0364EB050404FACE
:1005500007F7CB401F43CC40376074600021BDE8F3
:10056000F0871846F8E69046E0E6C245EAD2B8EBD6
:10057000020E69EB03050138E4E72846D7E7404659
:1005800091E78146BEE7014678E702383C4445E7FB
:10059000084608E7A8F102083D442BE7704700BF72
:1005A00038B50E4A0E4B054618784FF47A73B3FBF4
:1005B000F0F31068B0FBF3F000F096F8044658B979
:1005C0000F2D09D8024629464FF0FF3000F04AF8B7
:1005D000044B20461D6038BD012038BD10000020AE
:1005E000000000200400002008B50B4B1A6842F4FC
:1005F00000721A601A6842F480621A601A6842F443
:1006000080721A60032000F01BF80020FFF7C8FF7B
:1006100001F0C8F8002008BD003C0240034A044B2A
:1006200011681B780B441360704700BF1002002054
:1006300000000020014B1868704700BF1002002026
:10064000074AD36823F4E0631B041B0C43F0BF6329
:10065000000243F4003300F4E0600343D3607047CA
:1006600000ED00E0174B30B5DC68C4F30224C4F1A0
:100670000703251D042B28BF0423062D4FF0010579
:1006800005FA03F303F1FF338CBF033C0024194048
:10069000A14005FA04F4013C2240002842EA01028C
:1006A0004FEA0212ADBF00F1604000F00F00064BB0
:1006B00000F56140B5BFD2B2D2B21A5480F800231F
:1006C00030BD00BF00ED00E014ED00E0002808DBC5
:1006D0004209012300F01F0003FA00F0014B43F828
:1006E0002200704700E100E00138B0F1807F0AD2BB
:1006F000064B074A5860F02182F823100020072299
:1007000098601A6070470120704700BF10E000E059
:1007100000ED00E090F83530022B03D080234365D4
:10072000012070470268052380F83530136823F0F4
:1007300001031360002070472DE9F04F85B00B686E
:10074000DFF88C81604A01934FF001090023019D7D
:1007500009FA03F42540AC4240F0A6804C6824F02E
:10076000100C0CF1FF36012E4FEA430E12D88768A9
:10077000032606FA0EF627EA0607CE6806FA0EF6F4
:100780003E4386604768C4F3001627EA05079E408B
:100790003E4346600326C76806FA0EF6F64307EAAC
:1007A000060A8F6807FA0EF747EA0A07BCF1020F3C
:1007B000C76016D14FEAD30A00EB8A0A03F0070B91
:1007C000DAF820704FEA8B0B4FF00F0C0CFA0BFC91
:1007D00027EA0C0C0F6907FA0BF747EA0C07CAF86F
:1007E000207007683E4004F0030707FA0EFE4EEA49
:1007F00006060660E60057D54FF0000BCDF80CB0AA
:10080000D8F84470314E47F48047C8F84470D8F89F
:10081000447007F480470397039F23F0030707F111
:10082000804707F59C3703F0030CD7F808A04FEA80
:100830008C0C4FF00F0E0EFA0CFEB0422AEA0E0E90
:1008400039D006F58066B04237D006F58066B042F2
:1008500035D006F58066B04233D006F58066B042EA
:1008600014BF0726042606FA0CF646EA0E06BE60FA
:100870001668EF4314F4803F0CBF3E402E431660D1
:10088000566814F4003F0CBF3E402E4356609668F5
:1008900014F4801F0CBF3E402E439660D668A4021D
:1008A00054BF3E402E43D6600133102B7FF44FAF30
:1008B00005B0BDE8F08F5E46D5E70126D3E70226F6
:1008C000D1E70326CFE700BF003C01400000024013
:1008D000003802402DE9F341044608B901203FE009
:1008E0000368DD0710D4236898075AD423681A07D1
:1008F00000F19C8023685B0700F1BA80A0690028A2
:1009000040F01B8100202BE0A44B9A6802F00C02FF
:10091000042A07D09A6802F00C02082A0AD15B6800
:10092000590207D59D4B1B689A03DCD56368002BE1
:10093000D9D1D3E76368994DB3F5803F13D12B68C4
:1009400043F480332B60FFF775FE944D06462B6809
:100950009B03C8D4FFF76EFE801B6428F7D90320E1
:1009600002B0BDE8F081B3F5A02F04D12B6843F4A9
:1009700080232B60E3E72A6822F480322A602A6809
:1009800022F480222A60002BDDD1FFF753FE0646B9
:100990002B689F03A7D5FFF74DFE801B6428F7D96E
:1009A000DDE77E4B9A6812F00C0F07D09A6802F0D0
:1009B0000C02082A11D15B685E020ED4774B1A68CC
:1009C000950702D5E268012A88D11A68216922F0C8
:1009D000F80242EAC1021A6088E7E268704BB2B1DD
:1009E00001221A60FFF726FE6C4D06462B68980719
:1009F00007D52B68226923F0F80343EAC2032B6072
:100A000074E7FFF717FE801B0228EFD9A7E71A60EB
:100A1000FFF710FE614D06462B6899077FF566AF1C
:100A2000FFF708FE801B0228F6D998E762695D4B44
:100A30007AB101221A60FFF7FDFD584D06466B6F33
:100A40009F073FF557AFFFF7F5FD801B0228F6D94A
:100A500085E71A60FFF7EEFD504D06466B6F98076D
:100A60007FF548AFFFF7E6FD801B0228F6D976E751
:100A70004A4B1A6C12F0805228D101921A6C42F043
:100A800080521A641B6C03F080530193019B012672
:100A9000454D2B68D9051BD5A368404D012B27D1A7
:100AA0002B6F43F001032B67FFF7C4FD3B4D074657
:100AB00041F288382B6F9B0739D5002E3FF41EAFCB
:100AC000364A136C23F08053136417E70026DFE7E0
:100AD0002B6843F480732B60FFF7ACFD07462B684F
:100AE000DA05D9D4FFF7A6FDC01B0228F7D936E7EF
:100AF000052B04D12B6F43F004032B67D0E72A6F3B
:100B000022F001022A672A6F22F004022A67002BD2
:100B1000CAD1FFF78FFD41F2883807462B6F98073F
:100B2000CBD5FFF787FDC01B4045F7D917E7FFF787
:100B300081FDC01B4045BDD911E7184DAB6803F0DE
:100B40000C03082B47D0194E00230228336035D1FF
:100B5000FFF770FD07462B68990129D4226AE369E3
:100B60001343626A43EA8213E26A43EA0263A26AB7
:100B70000A4C5208013A43EA02436B600123336096
:100B8000FFF758FD054623689A013FF5BBAEFFF716
:100B900051FD401B0228F6D9E1E600BF00380240B3
:100BA00000004742800E474200700040600047420C
:100BB000FFF740FDC01B0228CDD9D0E6FFF73AFD74
:100BC00004462B689B017FF59DAEFFF733FD001BAC
:100BD0000228F6D9C3E601283FF4C2AE6868E3698B
:100BE00000F480029A427FF479AE226A00F03F035B
:100BF00093427FF473AE626A47F6C0730340934238
:100C00007FF46CAEA26A00F4403393427FF466AE88
:100C1000E36A00F07060C01A18BF0120A0E600BFB0
:100C2000134908B58B6803F00C03042B03D0082B81
:100C300003D0104808BD104808BD4A684B68496891
:100C400013F4800314BF0C480A48C1F3881118BF7D
:100C5000002302F03F02A1FB0001FFF719FB044B48
:100C60005B68C3F3014301335B00B0FBF3F008BDE5
:100C7000003802400024F40040787D012DE9F04165
:100C80000D46044610B90120BDE8F081444B1A68B6
:100C900002F00F028A4229D321688F072ED4C80799
:100CA00041D43F4B1A6802F00F02954267D3226885
:100CB00051076DD4130707D53A4A2169936823F485
:100CC000604343EAC1039360FFF7AAFF354B364AFE
:100CD0009B68C3F30313D35CD840344B1860344B88
:100CE0001868FFF75DFC0020BDE8F081CAB21A70F9
:100CF0001B6803F00F039942C5D1CDE7294B11F0D2
:100D0000040F1EBF9A6842F4E0529A600E0742BF79
:100D10009A6842F460429A609A68A06822F0F002F1
:100D200002439A60BBE762681E4B012A1DD11B6813
:100D300013F4003FA7D01B4EB36823F00303134303
:100D4000B360FFF777FC41F288380746B368626802
:100D500003F00C03B3EB820FA3D0FFF76BFCC01BB7
:100D60004045F3D90320BDE8F081911E01291B689D
:100D700002D813F0007FDDE713F0020FDAE7EAB2E2
:100D80001A701B6803F00F039D427FF47CAF8EE75F
:100D90000449E0688B6823F4E05303438B6089E7E0
:100DA000003C024000380240FE25000810000020F0
:100DB00004000020044B054A9B68C3F38223D35CE4
:100DC000034A1068D8407047003802400E260008D9
:100DD00010000020044B054A9B68C3F34233D35CE8
:100DE000034A1068D8407047003802400E260008B9
:100DF00010000020036A23F001030362036A70B548
:100E0000446882690D6822F073022A438D6823F0DA
:100E100002032B430A4DA8420BD1CD688E6923F003
:100E200008032B434D6924F44074354323F0040335
:100E30002C43446082614A684263036270BD00BF14
:100E400000000140036A23F480730362036A70B5F3
:100E50004468C2690D6822F073022A438D6823F446
:100E6000007343EA05230B4DA8420DD1CD688E696E
:100E700023F4006343EA05234D6924F440543543C9
:100E800023F4806344EA05144460C2614A68C26383
:100E9000036270BD00000140036A23F480530362C3
:100EA000036A30B54468C2690D6822F4E64242EA3A
:100EB00005228D6823F4005343EA0533064DA8420A
:100EC00002BF4D6924F4804444EA85144460C26141
:100ED0004A680264036230BD00000140244A03688E
:100EE00090420ED0B0F1804F0BD0A2F57C429042E0
:100EF00007D002F58062904203D002F580629042F2
:100F000015D14A6823F070031343194A904219D04F
:100F1000B0F1804F16D0A2F57C42904212D002F57B
:100F2000806290420ED002F5806290420AD0114A4F
:100F3000904207D002F58062904203D002F58062B1
:100F4000904203D1CA6823F4407313434A6923F0E3
:100F50008003134303608B68C3620B688362044B96
:100F6000984204BF0B69036301234361704700BFCC
:100F7000000001400040014010B50446A0B190F8C7
:100F80003D3003F0FF021BB980F83C2000F026FC46
:100F9000022384F83D302068211DFFF79FFF0123C5
:100FA00084F83D30002010BD012010BD036A23F0FD
:100FB00010030362036A70B5446882690D6822F405
:100FC000E64242EA05228D6823F0200343EA051336
:100FD0000B4DA8420DD1CD688E6923F0800343EA02
:100FE00005134D6924F44064354323F0400344EA7B
:100FF0008504446082614A688263036270BD00BFF9
:101000000000014038B590F83C30012B04464FF009
:10101000020025D0012384F83C3084F83D000C2ADE
:1010200018D8DFE802F0071717171E1717172F1722
:10103000171740002068FFF7DDFE236809699A69E9
:1010400042F008029A619A6922F004029A619A6950
:101050000A439A610123002084F83D3084F83C0063
:1010600038BD2068FFF7A2FF236809699A6942F436
:1010700000629A619A6922F480629A619A6942EAEE
:101080000122E6E72068FFF7DDFE23680969DA69D7
:1010900042F00802DA61DA6922F00402DA61DA6900
:1010A0000A43DA61D6E72068FFF7F6FE236809698C
:1010B000DA6942F40062DA61DA6922F48062DA61A4
:1010C000DA6942EA0122ECE7036A01F01F0110B578
:1010D00001248C4023EA04030362036A8A401A4312
:1010E000026210BD10B5044601220068FFF7ECFF54
:1010F0002368094A934202BF5A6C42F400425A6480
:101100009A6802F00702062A1EBF1A6842F001021E
:101110001A60002010BD00BF0000014090F83C3074
:10112000012B30B54FF002032DD080F83D3003681D
:101130000D685C6824F0700401222C4380F83C2088
:101140009A685C60114CA34212D0B3F1804F0FD06B
:10115000A4F57C44A3420BD004F58064A34207D0DD
:1011600004F58064A34203D004F59A34A34204D169
:10117000496822F080020A439A60012380F83D30DA
:10118000002380F83C30184630BD00BF000001400D
:101190000368DA6822F49072DA605A6922F0010278
:1011A0005A61202380F83A307047000038B5036850
:1011B000C1681A69044622F440520A431A6125693B
:1011C000A268D968C0692A43656921F416412A4397
:1011D00021F00C0102430A43DA605A69A16922F442
:1011E00040720A43B0F5004F5A61254A29D1934213
:1011F00003D002F58062934220D1FFF7EBFD6268D5
:10120000256892184FF000034FF019015B41A0FBD5
:101210000101FFF73DF86421B0FBF1F401FB140379
:10122000DB003233B3FBF1F303F007025B0002EBA8
:10123000041203F4F8731344AB6038BDFFF7BAFD32
:10124000DDE7934202D00F4A934216D1FFF7C2FD69
:101250006368256819219A00A0FB01019B0FFFF725
:1012600017F86422B0FBF2F102FB11031B013233C9
:10127000B3FBF2F303EB0113DEE7FFF79BFDE7E7B8
:10128000001001400014014010B5044640B390F82E
:10129000393003F0FF021BB980F8382000F0E0FA83
:1012A0002268242384F83930D36823F40053D360B0
:1012B0002046FFF77BFF23681A6922F490421A61E7
:1012C0005A6922F02A025A61DA6842F40052DA605E
:1012D00000202023E06384F8393084F83A3010BDD0
:1012E000012010BD90F83A30202B20D1E9B1E2B1B5
:1012F00090F83830012B1AD0C28582850023222233
:10130000C36380F83A2002688162D16880F838307F
:1013100041F48071D160516941F001015161D1689E
:1013200041F02001D160184670470120704702202B
:101330007047704790F83A30222B10B536D1836849
:1013400001690268B3F5805F836A23D15268E9B905
:10135000C2F3080223F8022B8362C48D013CA4B2BD
:10136000C4858CB90368DA6822F02002DA60DA6892
:1013700022F48072DA605A6922F001025A61202355
:1013800080F83A3000F0C0F8002010BDD2B223F847
:10139000012BE1E721B9591C526881621A70DCE720
:1013A0005268591C816202F07F02F7E7022010BDEB
:1013B0007047000003681A68D96870B516070446BC
:1013C0005D6907D196065CD58D065AD5BDE870409B
:1013D000FFF7B0BF15F0010502D111F4907F50D096
:1013E000D00705D5CB0542BFE36B43F00103E363B0
:1013F000560704D51DB1E36B43F00203E363900786
:1014000004D51DB1E36B43F00403E363130706D572
:101410008E0600D41DB1E36B43F00803E363E36B76
:10142000002B66D0950604D5880602D52046FFF726
:1014300081FF23685D69E26B1107204602D415F035
:1014400040051AD0FFF7A4FE23685A69520610D54A
:101450005A69606B22F040025A6150B1254B036516
:10146000FFF758F9002844D0606BBDE87040036D69
:1014700018472046FFF79CFF70BDFFF799FFE56313
:1014800070BD160627D50D0625D594F83920212ADA
:101490002FD1A268B2F5805F226A17D11188C1F3FB
:1014A00008015960216979B902322262E28C013A5D
:1014B00092B2E284EAB9DA6822F08002DA60DA688D
:1014C00042F04002DA6070BD0132EEE7511C216249
:1014D00012785A60EAE750060BD54A0609D5DA6851
:1014E00022F04002DA60202384F839302046FFF7EA
:1014F00020FF70BDF914000808B5806B0023C38578
:10150000C384FFF755FF08BD07B5194B02689A421F
:1015100012D1184B18481A688AB102780A2A06D1E3
:1015200000221A6001460B221448FFF7DBFE01225D
:1015300011491248FFF7D6FE03B05DF804FB827A2A
:101540000A2A10D101AB6A460D4900F05BFA022865
:1015500007D1009B0B4A1B111360019B0A4A1B1108
:1015600013600B22E4E701221A600146E1E700BFA5
:101570000010014000020020540200206002002000
:10158000F8250008080000200C00002040F6640345
:10159000984210B5184B12D91A680024A0F50060C3
:1015A000546380B2906340F66402914214D91B6880
:1015B000A1F50061002289B2DA63196410BD40F21E
:1015C0009B7290421A6895BFC0F50060002050637E
:1015D000506398BF0020E5E740F29B7291421B6880
:1015E00097BFC1F50061002289B2002294BFD96380
:1015F000DA631A6410BD00BF1402002010B594B065
:101600003022002108A800F0F5F90021142203A8D7
:1016100000F0F0F90024174B01941A6C42F080524C
:101620001A641B6C144A03F080530193019B0294CB
:10163000136823F4404343F40043136013680E948B
:1016400003F440430293029B0223089301230B936C
:1016500008A810230C93FFF73DF90F23214603A898
:1016600003930494059406940794FFF707FB14B0C2
:1016700010BD00BF003802400070004080B58CB043
:101680000024FEF7B1FFFFF7B9FF3D4B01941A6B41
:101690003C4D3D4E42F001021A631A6B02F001020A
:1016A0000192019A02941A6B42F002021A631B6BB8
:1016B000039403F00203214602931C2205A8029B17
:1016C000049400F097F9314AAC60022385E80C00DD
:1016D0004FF40063EB6028468023AB612C61FFF779
:1016E0004BFC03A9284603940494FFF717FD6023DD
:1016F000224605A928460593069407940994FFF706
:1017000081FC042205A92846FFF77CFC082205A9D4
:101710002846FFF777FC0C2205A92846FFF772FC44
:10172000284600F073F81A49B4604FF416530C279A
:10173000304686E80A00F4603461B461F461776190
:10174000FFF7A2FD134B1449012230461A60FFF740
:10175000C9FD21462846FFF7C5FC04212846FFF7AE
:10176000C1FC08212846FFF7BDFC28463946FFF793
:10177000B9FC0A4D0A4C29882088FFF707FFFAE7D1
:1017800000380240140200206002002000080040DF
:101790000010014000020020540200200C00002034
:1017A0000800002082B00C4B002100915A6C42F4DA
:1017B00080425A645A6C02F480420092009A01916D
:1017C0001A6C42F080521A641B6C03F08053019330
:1017D000019B02B0704700BF003802400268094B0D
:1017E0009A4282B00BD100230193074B1A6C42F04E
:1017F00004021A641B6C03F004030193019B02B002
:10180000704700BF000800400038024010B5044691
:1018100086B01422002101A800F0ECF822680D4BDC
:101820009A4215D1002300930B4B0C481A6B42F0DF
:1018300002021A631B6B03F002030093009B4FF438
:101840007073019301A9022302930593FEF774FFBD
:1018500006B010BD000800400038024000040240FD
:1018600010B5044688B01422002103A800F0C2F885
:101870002268184B9A422BD103F59433002401942B
:101880005A6C154842F010025A645A6C02F0100269
:101890000192019A02941A6B42F001021A631B6BC7
:1018A00003F001030293029B4FF4C06303930223EE
:1018B00004930323069303A907230793FEF73CFF32
:1018C000252022462146FEF7CDFE2520FEF7FEFE0E
:1018D00008B010BD00100140000002407047FEE754
:1018E000FEE7FEE7FEE7704770477047FEF796BEDB
:1018F0000148FFF75FBD00BF6002002008B50A4B3A
:101900001968024609B9094919601868694602440C
:101910008A4206D900F044F80C2303604FF0FF30F0
:1019200008BD1A6008BD00BF04020020A402002008
:10193000054BD3F8882042F47002C3F888204FF09A
:1019400000629A60704700BF00ED00E0DFF834D01D
:10195000002103E00C4B5B58435004310B480C4B07
:1019600042189A42F6D30B4A02E0002342F8043BA5
:10197000094B9A42F9D3FFF7DBFF00F017F8FFF7A6
:101980007DFE704700000120B42700080000002001
:10199000E4010020E4010020A4020020FEE7000092
:1019A000014B1868704700BF1400002070B50D4E41
:1019B0000D4CA41BA4100025A54209D10B4E0C4CC4
:1019C00000F008FEA41BA4100025A54205D170BD9F
:1019D00056F8253098470135EEE756F825309847F8
:1019E0000135F2E7AC270008AC270008AC27000857
:1019F000B027000802440346934200D1704703F821
:101A0000011BF9E70EB430B59CB01FAC4FF4017266
:101A100054F8045BADF8142002900690FEF7E0FB4A
:101A20000B4B039007900B930A48019400230F93EC
:101A300014934FF6FF73ADF816302A46234602A9D9
:101A4000006800F065F81CB0BDE8304003B0704796
:101A5000591A0008140000200020704738B54B1CAC
:101A6000144603D14FF0FF35284638BD938923F043
:101A700020039381536B5268CDB28BB1A36B9A4212
:101A800008DA23685A1E226003F8015C6368013398
:101A90006360E9E7214600F039FC0028F1D0E1E776
:101AA0002169236851B1994208D213F8011C8D4273
:101AB00004D1013B013223606260D5E7E36304F1A6
:101AC000440363630323A3632346226403F8465F4E
:101AD00023600123DCE710B50C46496B69B104F1C2
:101AE0004403994201D000F07BFC236C636000202A
:101AF000606313B1E36B236010BD2369236000238F
:101B00006360A38943F02003A3814FF0FF3010BD31
:101B10002DE9F04FADF5257D0DF10C080193002363
:101B200046934793A04BA293DFF884929F4BCDF846
:101B3000208106460C46A39392460A279AF8003065
:101B4000002B00F02F8100F01FFC9AF800B05844E1
:101B5000437813F0080343D1BBF1250F0AF10105C7
:101B600040F09980459343939AF801302A2B03D192
:101B7000102343930AF102052978A1F13002092AC2
:101B8000AA4605F1010541D903228948FEF730FB39
:101B900038B1A0EB090301209840439B18434390C0
:101BA000AA469AF80030672B0AF101054AD8652B3E
:101BB00080F0B780472B2FD8452B80F0B280002BC8
:101BC00000F08280252B66D003234993449745E09B
:101BD00047990131479161680133013961602360A0
:101BE0006368002B0BDD00F0CFFB236819780844F5
:101BF00041780D07ECD40AF10105AA469EE7A39BA4
:101C00002146304698470028EDD0F4E7459B07FB76
:101C10000313303B4593AFE75B2B61D00CD8582BB7
:101C2000D2D1439A42F400724392102244926F2B15
:101C3000B4BF0323042310E0632B5CD0642BC3D117
:101C40004497F4E7702B42D01DD86E2B59D043D85F
:101C5000692BB9D100234493032349936368002B74
:101C600061DD439B59066FD5499B022B7CDC01ABA0
:101C7000224643A9304600F09FF8012800F09280E8
:101C80000228BAD11DE0752BDAD0782BC9D0732B7E
:101C90009AD10223E1E76368002B0CDD23681A78F0
:101CA00093457FD1013362682360479B013A01333A
:101CB00062604793A1E7A39B2146304698470028DE
:101CC000ECD04698002863D14FF0FF3066E0439A8D
:101CD00042F020024392A4E7082344930423BCE784
:101CE0002946404600F0C0F9439B43F0400343932C
:101CF00005460123B1E7439B43F040034393002390
:101D0000ABE7439AD0063FF578AF12F0010F019A86
:101D1000479B02F104010191126814BF1380136004
:101D20006BE7052399E7A39B214630469847002897
:101D300097D0C6E7479A013247926268013A002A73
:101D400062600ADD0133236000F01EFB23681A780D
:101D5000104442781207EDD486E7A39B2146304613
:101D600098470028F0D0ACE7042B06DC01AB2246F4
:101D700043A9304600F084F87FE70E4B002B3FF478
:101D80003CAF01AB224643A93046AFF3008074E775
:101D9000A38913F0400F18BF4FF0FF300DF5257DDC
:101DA000BDE8F08F4698F9E75D1A0008D71A0008D9
:101DB00016260008000000002DE9F04115468A684B
:101DC00080460C4632B98A69002A0CBF01224FF0C6
:101DD000FF328A602268D1065FBF1A68111D196040
:101DE00017680026A369DBB1012B07D12B68626954
:101DF0001B78D35CA3B9002E32D106E0022B07D0AA
:101E0000002E2DD1A369012B2AD10120BDE8F0813C
:101E100000F0BAFA2B681B78184443781B07EFD4FC
:101E20002368DA065EBF2B681B783B702A686B68F4
:101E300002F101022A60A26803F1FF3302F1FF32CE
:101E40006B6006F1010658BF0137A26042B1002B5A
:101E5000C8DCD4F880312946404698470028C1D0D4
:101E6000236813F0100305D1E2680132E260A26931
:101E700002B13B7023691E4426610020BDE8F08159
:101E80002DE9F04F9A46744B0C468346164693E86C
:101E9000070087B003ABA76883E807006F4BA16911
:101EA0006F4A032918BF1A467B1EB3F5AE7F84BF65
:101EB00040F25D13A3602368009243F4506388BF2F
:101EC0006FF4AE7504F11C0923608CBF7F190027E5
:101ED0004B464FF000080193316803AB022253F8E0
:101EE00028000978FEF784F9019B28B3B8F1010FA7
:101EF00056D162682AB908226260226842F40072F0
:101F00002260226822F4A0622260A268511EA160B1
:101F100092B13268511C316012781A705D1C73687E
:101F2000013B002B736006DCD4F880313146584603
:101F30009847002876D12B4608F10108B8F1030F25
:101F4000C9D162680AB90A2262606268454960695B
:101F50000193891A00F088F8019B4FF000081D4694
:101F6000A368002B38D0316860690A78805C00284B
:101F700032D0302A226821D110051FD508F101087E
:101F800017B10133013FA3607368013B002B7360FD
:101F90001BDD336801333360A368013BA360DFE7D7
:101FA000B8F1020FB1D1226802F4C061B1F5007F2F
:101FB000C2D11021616042F48072A5E722F4106260
:101FC00022600B782B700135DEE7D4F88031314682
:101FD000584698470028DFD02368D9050CD54D45D1
:101FE00008D915F8011CD4F87C3132465846984778
:101FF0006F1E3D464D452CD0226812F010021ED1B6
:102000002A706368009E49465846B0472268DAF84D
:10201000003012F0200F08D01A1DCAF800201B68EB
:10202000186009E04FF00008D6E7D207F4D51A1D72
:10203000CAF800201B681880E3680133E360A5EB51
:102040000905A844256945442561002007B0BDE87D
:10205000F08F0120FAE700BFEC250008E922000814
:10206000C92100082A26000870B50B785E2B13BF23
:102070004A1C8A1C4B78002108BF0121441E00F134
:10208000FF0504F8011FA542FBD113B9013A104620
:1020900070BD81F00104C45411460D782D2D01F15D
:1020A000010206D05D2DF2D00DB90A46EFE72B46AE
:1020B000F1E74E785D2EFAD0B342F8DC02310133FD
:1020C0009E42C454FBDCE8E72DE9F84F8046894680
:1020D00092461F468B465D460A9815F8014B00F064
:1020E00050F92044467816F008060BD12D2C0BD160
:1020F0002C7801260BF1020567B1102F14D1302C7A
:102100000AD011E0AB46E6E72B2C04BF2C780BF18C
:102110000205F1E7302C27D12B7803F0DF03582B91
:102120004BD16C7810270235002E0CBF6FF00041A8
:102130004FF000410022B1FBF7FE104607FB1E1CCA
:10214000A4F13003092B11D81C46A7421DDD531CF6
:1021500007D0864516D301D1A44513DB00FB074009
:10216000012215F8014BEBE70A27DDE7A4F1410353
:10217000192B01D8373CE8E7A4F16103192B04D8E7
:10218000573CE2E74FF0FF32EBE7531C08D1222324
:10219000C8F800300846BAF1000F07D1BDE8F88F43
:1021A00006B14042BAF1000F0CD022B1013DCAF88D
:1021B0000050BDE8F88F4D46F9E73024002FB3D129
:1021C0000827B1E7BDE8F88F37B5064C064D2468FF
:1021D000246A002C08BF2C460094FFF775FF03B05B
:1021E00030BD00BF14000020780000202DE9F0472A
:1021F0008046894692461E460F463D46089815F889
:10220000014B00F0BEF82044437813F008030AD1D4
:102210002D2C0AD12C780123BD1C5EB1102E13D1B8
:10222000302C09D010E02F46E7E72B2C04BF2C7888
:10223000BD1CF2E7302C25D12A7802F0DF02582AA3
:102240004AD16C78102602354FF0FF310027B1FBE0
:10225000F6F106FB01FE6FEA0E0E3846A4F13002DD
:10226000092A11D81446A6421DDD002F18DB814231
:1022700016D301D1A64513DB00FB0640012715F854
:10228000014BEBE70A26DFE7A4F14102192A01D846
:10229000373CE8E7A4F16102192A04D8573CE2E789
:1022A0004FF0FF37EBE7002F09DA2223C8F80030A0
:1022B0004FF0FF30BAF1000F07D1BDE8F08703B14E
:1022C0004042BAF1000F0CD027B1013DCAF80050CE
:1022D000BDE8F0874D46F9E73024002EB4D108263A
:1022E000B2E7BDE8F087000037B5064C064D24681C
:1022F000246A002C08BF2C460094FFF777FF03B038
:1023000030BD00BF14000020780000202DE9F0410E
:102310000C46496B04F1440399421ED14FF480618D
:1023200000F0ACF818B94FF0FF30BDE8F0814FF481
:102330008063A36394F84630606380F8FF3394F8B9
:10234000453080F8FE3394F8443080F8FD3300F2D5
:10235000FD3020600020BDE8F081A66B77003A4692
:1023600000F0EAF805460028DDD000EB060801463B
:102370003246404600F028F8C4F800806563A76341
:10238000E8E7D0F8EC007047044B054A1B681B6A6D
:10239000002B08BF1346D3F8EC0070471400002050
:1023A0007800002082B001B901A942B14BB1137885
:1023B0000B601278101C18BF012002B07047104645
:1023C000FBE76FF00100F8E710B5431E0A449142A5
:1023D00000D110BD11F8014B03F8014FF7E70000E1
:1023E00038B50546002945D051F8043C0C1F002B98
:1023F000B8BFE41800F0E3F81F4A1368104633B979
:10240000636014602846BDE8384000F0D9B8A342A4
:102410000CD921686218934204BF1A685B68636034
:1024200004BF521822600460ECE713465A680AB1F0
:10243000A242FAD919685818A0420BD12068014469
:10244000581882421960DDD1106852685A60014400
:102450001960D7E702D90C232B60D3E72068211835
:102460008A4204BF11685268626004BF0918216083
:102470005C60C7E738BD00BF0802002070B5CD1C06
:1024800025F0030508350C2D38BF0C25002D064618
:1024900001DBA94203D90C233360002070BD00F09A
:1024A0008EF8234A1468214691B9224C23681BB93F
:1024B000304600F067F820602946304600F062F8A8
:1024C000431C26D10C233360304600F079F8E4E752
:1024D0000B685B1B1AD40B2B0FD90B60CD50CC189B
:1024E000304600F06DF804F10B00231D20F00700CA
:1024F000C31A1BD05A42E25070BD8C420DBF6368B4
:102500004B686360136018BF0C46E9E70C464968E6
:10251000CAE7C41C24F00304A04205D0211A3046A7
:1025200000F030F80130CDD02560D9E770BD00BF94
:10253000080200200C020020F8B5074614460E469B
:1025400021B91146BDE8F840FFF798BF22B9FFF75F
:1025500047FF25462846F8BD00F033F884420FD9DE
:1025600021463846FFF78AFF05460028F2D031465B
:102570002246FFF729FF31463846FFF731FFE9E7EA
:102580003546E7E738B5064C002305460846236084
:10259000FFF7B4F9431C02D1236803B12B6038BDA7
:1025A000A002002049B1FF2A85BF8A2303600A7078
:1025B0004FF0FF3098BF01207047084670477047C2
:1025C000704751F8040C0028A0F10400BCBF0B5860
:1025D000C0187047F8B500BFF8BC08BC9E467047ED
:0C25E000F8B500BFF8BC08BC9E46704770
:1025EC002C2600082F2600083226000825782025E6
:1025FC007800000000000000000001020304060740
:10260C0008090000000001020304686C4C00412D15
:10261C0046612D66383930313233343536375D000A
:10262C002B2D003030007858000000000000000016
:10263C00000000000000000000000000000000008E
:10264C00000000000000000000000000000000007E
:10265C00000000000000000000000000000000006E
:10266C00000000000000000000000000000000005E
:10267C00000000000000000000000000000000004E
:10268C000000000000000000000000004300504F5C
:10269C00534958002E0000202020202020202020EC
:1026AC0028282828282020202020202020202020F6
:1026BC002020202020202088101010101010101026
:1026CC00101010101010100404040404040404046A
:1026DC0004101010101010104141414141410101F2
:1026EC0001010101010101010101010101010101CE
:1026FC0001011010101010104242424242420202DC
:10270C00020202020202020202020202020202029D
:10271C000202101010102000000000000000000049
:10272C00000000000000000000000000000000009D
:10273C00000000000000000000000000000000008D
:10274C00000000000000000000000000000000007D
:10275C00000000000000000000000000000000006D
:10276C00000000000000000000000000000000005D
:10277C00000000000000000000000000000000004D
:10278C00000000000000000000000000000000003D
:08279C00000000000000000035
:0827A4001CDBFF7F01000000B7
:0427AC00C50100085B
:0427B000A10100087B
:1027B40001000000100000000008000000080000F4
:1027C4000024F4001800002000000000582600082F
:1027D40078260008382600080000000000000000E9
:1027E40000000000000000000000000000000000E5
:1027F40000000000000000000000000000000000D5
:1028040000000000000000000000000000000000C4
:1028140000000000000000000000000000000000B4
:102824000000000000000000430000000000000061
:102834000000000000000000000000000000000094
:102844000000000000000000430000000000000041
:102854000000000000000000000000000000000074
:102864000000000000000000430000000000000021
:102874000000000000000000000000000000000054
:102884000000000000000000430000000000000001
:102894000000000000000000000000000000000034
:1028A40000000000000000004300000000000000E1
:1028B4000000000000000000000000000000000014
:1028C40000000000000000004300000000000000C1
:1028D40000000000000000000000000000000000F4
:1028E40000000000000000004300000000000000A1
:1028F40000000000000000000000000000000000D4
:102904000000000000000000A5250008A523000821
:1029140000000000A2260008A02600082E260008B9
:102924002E2600082E2600082E2600082E26000833
:102934002E2600082E2600082E2600082E26000823
:10294400FFFFFFFFFFFFFFFFFFFFFFFFFFFF000091
:102954000100415343494900000000000000000009
:102964000000000000000000000000000000000063
:1029740000004153434949000000000000000000EA
:102984000000000000000000000000000000000043
:04299400000000003F
:040000050800194D89
:00000001FF
